:100000000C942A000C9447000C9405060C944700AD
:100010000C9447000C9447000C9447000C94470044
:100020000C9447000C9447000C9447000C94470034
:100030000C9447000C9447000C9447000C94470024
:100040000C9447000C9447000C9447000C94470014
:100050000C94470011241FBECFE5D8E0DEBFCDBF12
:1000600010E0A0E6B0E0EEE5FCE002C005900D92E5
:10007000A838B107D9F720E0A8E8B0E001C01D9288
:10008000AA38B207E1F70E9458040C942D060C948C
:100090000000FC0109950895CF93DF93D82FC0E0AD
:1000A00052C02FEF49EF80E0215040408040E1F7FF
:1000B00000C00000C436E9F028F4CC2351F0C2336C
:1000C00081F037C0C83C29F1C93F59F1C63989F5DB
:1000D00018C06AE082E00E94750385E30E94B902BD
:1000E00028C06AE082E00E94750384E30E94B9029E
:1000F00020C06AE082E00E94750383E30E94B90297
:1001000018C06AE082E00E94750382E30E94B9028F
:1001100010C06AE082E00E94750381E30E94B90288
:1001200008C06AE082E00E94750387E690E00E94C2
:100130005E0380918900813029F4109289008093B8
:1001400088000BC0CF5F8C2F90E042E3D49F9001DA
:100150001124821793070CF4A4CFDF91CF91089557
:1001600080E014C02FEF39EF90E0215030409040F4
:10017000E1F700C0000090918900913031F41092B5
:10018000890081E08093880008958F5F823350F367
:1001900008951F93CF93DF9360E082E00E94750380
:1001A00082E690E00E945E030E944304C0E0D5E333
:1001B00014C082E00E9409046AE082E00E94750394
:1001C0001FEF1D0F8D2F0E94B9020E94B000809179
:1001D0008800813079F0CF5FD12FC53050F360E0D7
:1001E00082E00E94750387E690E00E945E0382E051
:1001F0000E94E903DF91CF911F9108950E9471033E
:100200000E94430468E081E00E94750388E790E063
:100210000E945E0383E00E94C90385E00E944C00B7
:1002200080918800813019F410928800E7CF83E034
:100230000E94E9030E94C90080918800813019F46E
:1002400010928800DBCF81E00E94C90385E00E9404
:100250004C0080918800813019F410928800CECF34
:1002600081E00E94E903CACF81E090E00E94F1059D
:1002700082E090E00E94F5050E9476020E94BC0395
:100280000E94FE006AE082E00E94750385E30E94FE
:10029000B9022FEF83ED90E3215080409040E1F7C9
:1002A00000C000006AE082E00E94750384E30E94BF
:1002B000B9022FEF83ED90E3215080409040E1F7A9
:1002C00000C000006AE082E00E94750383E30E94A0
:1002D000B9022FEF83ED90E3215080409040E1F789
:1002E00000C000006AE082E00E94750382E30E9481
:1002F000B9022FEF83ED90E3215080409040E1F769
:1003000000C000006AE082E00E94750381E30E9461
:10031000B9022FEF83ED90E3215080409040E1F748
:1003200000C00000089580E00E94C90381E00E949F
:10033000C9030E94710366E081E00E9475038DE7A6
:1003400090E00E945E030E9442010E9471030E949D
:10035000430408950E94930108950E94C9000E94D9
:10036000930108950E94C9000E949301089510927C
:10037000890081E00E942504813019F40E94AA01BD
:100380000AC083E00E942504813019F40E94AD0167
:1003900002C00E94B2010E94010681E080938900A0
:1003A0000895CF93C82F40E063E080E00E94D0041E
:1003B0008FE99FE00197F1F700C0000041E062E0A3
:1003C00080E00E94D0048FE99FE00197F1F700C020
:1003D00000004C2F407150E0559547955595479535
:1003E000559547955595479560E081E00E94D0046A
:1003F0004C2F407250E0559547955595479555952A
:100400004795559547955595479561E081E00E9440
:10041000D0044C2F407450E0042E452F000C441F94
:10042000550B000C441F551F62E081E00E94D00470
:100430004C2F441F4427441F64E081E00E94D004F5
:100440008FE99FE00197F1F700C0000040E062E013
:1004500080E00E94D0048FE99FE00197F1F700C08F
:10046000000041E062E080E00E94D0048FE99FE05C
:100470000197F1F700C000004C2F417060E081E06F
:100480000E94D0044C2F427050E05595479561E092
:1004900081E00E94D0044C2F447050E05595479560
:1004A0005595479562E081E00E94D004C8704C2FBA
:1004B00050E055954795559547955595479564E076
:1004C00081E00E94D0048FE99FE00197F1F700C01E
:1004D000000040E062E080E00E94D0048FE99FE0ED
:1004E0000197F1F700C00000CF91089541E062E06C
:1004F00080E00E945D0441E063E080E00E945D04D2
:100500002FEF89EF90E0215080409040E1F700C04C
:10051000000041E060E081E00E945D0441E061E0B4
:1005200081E00E945D0441E062E081E00E945D04A0
:1005300041E064E081E00E945D0483E30E94D10118
:1005400082E30E94D10188E20E94D10181E00E94F1
:10055000D1018CE00E94D1018FE39CE90197F1F772
:1005600000C000008CE00E94D10181E00E94D10116
:100570000895CF93C82F41E063E080E00E94D0044B
:100580008FE99FE00197F1F700C0000041E062E0D1
:1005900080E00E94D0048FE99FE00197F1F700C04E
:1005A00000004C2F407150E0559547955595479563
:1005B000559547955595479560E081E00E94D00498
:1005C0004C2F407250E05595479555954795559558
:1005D0004795559547955595479561E081E00E946F
:1005E000D0044C2F407450E0042E452F000C441FC3
:1005F000550B000C441F551F62E081E00E94D0049F
:100600004C2F441F4427441F64E081E00E94D00423
:100610008FE99FE00197F1F700C0000040E062E041
:1006200080E00E94D0048FE99FE00197F1F700C0BD
:10063000000041E062E080E00E94D0048FE99FE08A
:100640000197F1F700C000004C2F417060E081E09D
:100650000E94D0044C2F427050E05595479561E0C0
:1006600081E00E94D0044C2F447050E0559547958E
:100670005595479562E081E00E94D004C8704C2FE8
:1006800050E055954795559547955595479564E0A4
:1006900081E00E94D0048FE99FE00197F1F700C04C
:1006A000000040E062E080E00E94D0048FE99FE01B
:1006B0000197F1F700C00000CF9108950F931F93A9
:1006C000CF938C01C0E003C00E94B902CF5FF80154
:1006D000EC0FF11D80818111F7CFCF911F910F9108
:1006E000089581E00E94D1010895813039F058F0D9
:1006F000823031F0833031F060E005C0605C03C0CF
:100700006C5E01C06C5A862F80680E94D1010895EA
:10071000813089F028F08230C9F0833011F10895DA
:1007200041E065E080E00E945D0440E065E080E03B
:100730000E94D004089541E067E081E00E945D04DA
:1007400040E067E081E00E94D004089541E066E067
:1007500080E00E945D0440E066E080E00E94D004FA
:10076000089541E064E080E00E945D0440E064E0C0
:1007700080E00E94D004089580E00E94880381E018
:100780000E94880382E00E94880383E00E9488031D
:100790000895813061F028F0823079F0833099F04B
:1007A000089541E065E080E00E94D004089541E0B2
:1007B00067E081E00E94D004089541E066E080E0B7
:1007C0000E94D004089541E064E080E00E94D004DB
:1007D0000895813061F028F0823079F0833099F00B
:1007E000089540E065E080E00E94D004089540E074
:1007F00067E081E00E94D004089540E066E080E078
:100800000E94D004089540E064E080E00E94D0049B
:100810000895813059F028F0823069F0833081F0FA
:10082000089565E080E00E94BD05089567E081E0DD
:100830000E94BD05089566E080E00E94BD05089510
:1008400064E080E00E94BD050895813059F028F0F1
:10085000823069F0833081F014C065E080E00E944E
:100860004305089567E081E00E944305089566E02E
:1008700080E00E944305089564E080E00E94430503
:10088000089580E0089540E065E080E00E94D00493
:1008900040E067E081E00E94D00440E066E080E054
:1008A0000E94D00440E064E080E00E94D0040895FB
:1008B0000E94340180E090E00895843008F06FC019
:1008C000683008F06CC0813001F130F08230B1F155
:1008D000833009F44CC00895413059F42AB381E0C3
:1008E00090E002C0880F991F6A95E2F7822B8ABBBD
:1008F00008952AB381E090E002C0880F991F6A959D
:10090000E2F7809582238ABB0895413059F427B3DA
:1009100081E090E002C0880F991F6A95E2F7822B70
:1009200087BB089527B381E090E002C0880F991F2C
:100930006A95E2F78095822387BB0895413059F488
:1009400024B381E090E002C0880F991F6A95E2F716
:10095000822B84BB089524B381E090E002C0880F0D
:10096000991F6A95E2F78095822384BB08954130F0
:1009700059F421B381E090E002C0880F991F6A9575
:10098000E2F7822B81BB089521B381E090E002C0A1
:10099000880F991F6A95E2F78095822381BB08959D
:1009A000843008F06FC0683008F06CC0813001F10D
:1009B00030F08230B1F1833009F44CC008954130F9
:1009C00059F42BB381E090E002C0880F991F6A951B
:1009D000E2F7822B8BBB08952BB381E090E002C03D
:1009E000880F991F6A95E2F7809582238BBB089543
:1009F000413059F428B381E090E002C0880F991F7C
:100A00006A95E2F7822B88BB089528B381E090E0D5
:100A100002C0880F991F6A95E2F78095822388BBF0
:100A20000895413059F425B381E090E002C0880F69
:100A3000991F6A95E2F7822B85BB089525B381E063
:100A400090E002C0880F991F6A95E2F78095822393
:100A500085BB0895413059F422B381E090E002C093
:100A6000880F991F6A95E2F7822B82BB089522B303
:100A700081E090E002C0880F991F6A95E2F78095A7
:100A8000822382BB0895843008F069C0683008F082
:100A900068C08130F9F030F0823099F1833009F488
:100AA00047C061C049B381E090E09C01062E02C0BE
:100AB000220F331F0A94E2F7842F90E082239323BE
:100AC00002C0959587956A95E2F7892B09F44DC088
:100AD00081E0089546B381E090E09C01062E02C0BB
:100AE000220F331F0A94E2F7842F90E0822393238E
:100AF00002C0959587956A95E2F7892BC1F181E04F
:100B0000089543B381E090E09C01062E02C0220FBD
:100B1000331F0A94E2F7842F90E08223932302C0CC
:100B2000959587956A95E2F7892B19F181E00895EB
:100B300040B381E090E09C01062E02C0220F331FDB
:100B40000A94E2F7842F90E08223932302C09595C4
:100B500087956A95E2F7892B71F081E0089580E02E
:100B6000089580E0089580E0089580E0089580E091
:100B7000089580E0089580E00895813089F028F09C
:100B80008230C9F0833011F108952BB381E090E0F9
:100B900002C0880F991F6A95E2F782278BBB0895E0
:100BA00028B381E090E002C0880F991F6A95E2F7B0
:100BB000822788BB089525B381E090E002C0880FAA
:100BC000991F6A95E2F7822785BB089522B381E0D9
:100BD00090E002C0880F991F6A95E2F7822782BBD6
:100BE00008958FB780688FBF089582B340E063E0B7
:100BF0000E945D048BB780688BBF85B7886085BF16
:100C000008958AB780688ABF08951F920F920FB621
:100C10000F9211242F933F934F935F936F937F9382
:100C20008F939F93AF93BF93EF93FF938091600057
:100C3000909161000E944900FF91EF91BF91AF91A7
:100C40009F918F917F916F915F914F913F912F91E4
:0E0C50000F900FBE0F901F901895F894FFCFD5
:100C5E00B70120202020202020202020202020200E
:100C6E002020202020202000434152530050454494
:080C7E004553545249414E0058
:00000001FF
